{
  "contractName": "DappTokenSale",
  "abi": [
    {
      "constant": true,
      "inputs": [],
      "name": "tokenSold",
      "outputs": [
        {
          "name": "",
          "type": "uint256"
        }
      ],
      "payable": false,
      "stateMutability": "view",
      "type": "function"
    },
    {
      "constant": true,
      "inputs": [],
      "name": "tokenContract",
      "outputs": [
        {
          "name": "",
          "type": "address"
        }
      ],
      "payable": false,
      "stateMutability": "view",
      "type": "function"
    },
    {
      "constant": true,
      "inputs": [],
      "name": "tokenPrice",
      "outputs": [
        {
          "name": "",
          "type": "uint256"
        }
      ],
      "payable": false,
      "stateMutability": "view",
      "type": "function"
    },
    {
      "inputs": [
        {
          "name": "_tokenContract",
          "type": "address"
        },
        {
          "name": "_tokenPrice",
          "type": "uint256"
        }
      ],
      "payable": false,
      "stateMutability": "nonpayable",
      "type": "constructor"
    },
    {
      "anonymous": false,
      "inputs": [
        {
          "indexed": false,
          "name": "_buyer",
          "type": "address"
        },
        {
          "indexed": false,
          "name": "_amount",
          "type": "uint256"
        }
      ],
      "name": "Sell",
      "type": "event"
    },
    {
      "constant": false,
      "inputs": [
        {
          "name": "_numberOfTokens",
          "type": "uint256"
        }
      ],
      "name": "buyTokens",
      "outputs": [],
      "payable": true,
      "stateMutability": "payable",
      "type": "function"
    },
    {
      "constant": false,
      "inputs": [],
      "name": "endSale",
      "outputs": [],
      "payable": false,
      "stateMutability": "nonpayable",
      "type": "function"
    }
  ],
  "bytecode": "0x608060405234801561001057600080fd5b5060405160408061081a8339810180604052810190808051906020019092919080519060200190929190505050336000806101000a81548173ffffffffffffffffffffffffffffffffffffffff021916908373ffffffffffffffffffffffffffffffffffffffff16021790555081600160006101000a81548173ffffffffffffffffffffffffffffffffffffffff021916908373ffffffffffffffffffffffffffffffffffffffff160217905550806002819055505050610744806100d66000396000f30060806040526004361061006d576000357c0100000000000000000000000000000000000000000000000000000000900463ffffffff1680633610724e14610072578063380d831b14610092578063519ee19e146100a957806355a373d6146100d45780637ff9b5961461012b575b600080fd5b61009060048036038101908080359060200190929190505050610156565b005b34801561009e57600080fd5b506100a76103fe565b005b3480156100b557600080fd5b506100be6106b6565b6040518082815260200191505060405180910390f35b3480156100e057600080fd5b506100e96106bc565b604051808273ffffffffffffffffffffffffffffffffffffffff1673ffffffffffffffffffffffffffffffffffffffff16815260200191505060405180910390f35b34801561013757600080fd5b506101406106e2565b6040518082815260200191505060405180910390f35b610162816002546106e8565b3414151561016f57600080fd5b80600160009054906101000a900473ffffffffffffffffffffffffffffffffffffffff1673ffffffffffffffffffffffffffffffffffffffff166370a08231306040518263ffffffff167c0100000000000000000000000000000000000000000000000000000000028152600401808273ffffffffffffffffffffffffffffffffffffffff1673ffffffffffffffffffffffffffffffffffffffff168152602001915050602060405180830381600087803b15801561022d57600080fd5b505af1158015610241573d6000803e3d6000fd5b505050506040513d602081101561025757600080fd5b81019080805190602001909291905050501015151561027557600080fd5b600160009054906101000a900473ffffffffffffffffffffffffffffffffffffffff1673ffffffffffffffffffffffffffffffffffffffff1663a9059cbb33836040518363ffffffff167c0100000000000000000000000000000000000000000000000000000000028152600401808373ffffffffffffffffffffffffffffffffffffffff1673ffffffffffffffffffffffffffffffffffffffff16815260200182815260200192505050602060405180830381600087803b15801561033a57600080fd5b505af115801561034e573d6000803e3d6000fd5b505050506040513d602081101561036457600080fd5b8101908080519060200190929190505050151561038057600080fd5b806003600082825401925050819055507f5e5e995ce3133561afceaa51a9a154d5db228cd7525d34df5185582c18d3df093382604051808373ffffffffffffffffffffffffffffffffffffffff1673ffffffffffffffffffffffffffffffffffffffff1681526020018281526020019250505060405180910390a150565b6000809054906101000a900473ffffffffffffffffffffffffffffffffffffffff1673ffffffffffffffffffffffffffffffffffffffff163373ffffffffffffffffffffffffffffffffffffffff1614151561045957600080fd5b600160009054906101000a900473ffffffffffffffffffffffffffffffffffffffff1673ffffffffffffffffffffffffffffffffffffffff1663a9059cbb6000809054906101000a900473ffffffffffffffffffffffffffffffffffffffff16600160009054906101000a900473ffffffffffffffffffffffffffffffffffffffff1673ffffffffffffffffffffffffffffffffffffffff166370a08231306040518263ffffffff167c0100000000000000000000000000000000000000000000000000000000028152600401808273ffffffffffffffffffffffffffffffffffffffff1673ffffffffffffffffffffffffffffffffffffffff168152602001915050602060405180830381600087803b15801561057657600080fd5b505af115801561058a573d6000803e3d6000fd5b505050506040513d60208110156105a057600080fd5b81019080805190602001909291905050506040518363ffffffff167c0100000000000000000000000000000000000000000000000000000000028152600401808373ffffffffffffffffffffffffffffffffffffffff1673ffffffffffffffffffffffffffffffffffffffff16815260200182815260200192505050602060405180830381600087803b15801561063657600080fd5b505af115801561064a573d6000803e3d6000fd5b505050506040513d602081101561066057600080fd5b8101908080519060200190929190505050151561067c57600080fd5b6000809054906101000a900473ffffffffffffffffffffffffffffffffffffffff1673ffffffffffffffffffffffffffffffffffffffff16ff5b60035481565b600160009054906101000a900473ffffffffffffffffffffffffffffffffffffffff1681565b60025481565b6000808214806107075750828283850292508281151561070457fe5b04145b151561071257600080fd5b929150505600a165627a7a72305820c8e470aca168e78156dfdb2f232a75d2df5a3ec9bcffe93c3bc9cef8ebd63f3d0029",
  "source": "pragma solidity ^0.4.23;\nimport \"./DappToken.sol\";\n\ncontract DappTokenSale{\n\n    address admin;\n    DappToken public tokenContract; //contract type variable\n    uint256 public tokenPrice;\n    uint256 public tokenSold;\n\n    event Sell(\n        address _buyer,\n        uint256 _amount\n    );\n\n    constructor(DappToken _tokenContract, uint256 _tokenPrice) public{ //we can add a reference to DappToken contract inside of constructor\n\n        //assign an admin\n        admin = msg.sender;\n\n        //assign the Token contract\n        tokenContract = _tokenContract;\n\n        //token Price\n        tokenPrice = _tokenPrice;\n    }\n\n    //multiply\n    function multiply(uint x, uint y) internal pure returns (uint z) {\n        require(y == 0 || (z = x * y) / y == x);\n    }\n\n    //BUY TOKENS\n    function buyTokens(uint256 _numberOfTokens) public payable{\n\n        //Require that value is equal to the number tokens\n        require(msg.value == multiply(_numberOfTokens, tokenPrice));\n\n        //Require that the contract has enough tokens\n        require(tokenContract.balanceOf(this) >= _numberOfTokens);\n\n        //Require that a transfer is successful\n        require(tokenContract.transfer(msg.sender, _numberOfTokens));\n\n        //keep track of tokenSold\n        tokenSold += _numberOfTokens;\n\n        //emit the Sell Event\n        emit Sell(msg.sender, _numberOfTokens);\n    }\n\n    //Ending the token sale\n    function endSale() public{\n\n        //require admin can do this\n        require(msg.sender == admin);\n\n        //transfer remaining dapp tokens to admin\n        require(tokenContract.transfer(admin, tokenContract.balanceOf(this)));\n\n        //destroy contracts\n        selfdestruct(admin);\n    }\n}",
  "sourcePath": "/Users/julia/Sites/token_sale/contracts/DappTokenSale.sol",
  "compiler": {
    "name": "solc",
    "version": "0.4.24+commit.e67f0147.Emscripten.clang"
  },
  "schemaVersion": "2.0.1",
  "updatedAt": "2018-08-08T19:13:33.109Z"
}