{
  "contractName": "DappToken",
  "abi": [
    {
      "constant": true,
      "inputs": [],
      "name": "totalSupply",
      "outputs": [
        {
          "name": "",
          "type": "uint256"
        }
      ],
      "payable": false,
      "stateMutability": "view",
      "type": "function"
    },
    {
      "constant": true,
      "inputs": [
        {
          "name": "",
          "type": "address"
        }
      ],
      "name": "balanceOf",
      "outputs": [
        {
          "name": "",
          "type": "uint256"
        }
      ],
      "payable": false,
      "stateMutability": "view",
      "type": "function"
    },
    {
      "inputs": [
        {
          "name": "_initialSupply",
          "type": "uint256"
        }
      ],
      "payable": false,
      "stateMutability": "nonpayable",
      "type": "constructor"
    }
  ],
  "bytecode": "0x608060405234801561001057600080fd5b5060405160208061015e8339810180604052810190808051906020019092919050505080600081905550506101148061004a6000396000f3006080604052600436106049576000357c0100000000000000000000000000000000000000000000000000000000900463ffffffff16806318160ddd14604e57806370a08231146076575b600080fd5b348015605957600080fd5b50606060ca565b6040518082815260200191505060405180910390f35b348015608157600080fd5b5060b4600480360381019080803573ffffffffffffffffffffffffffffffffffffffff16906020019092919050505060d0565b6040518082815260200191505060405180910390f35b60005481565b600160205280600052604060002060009150905054815600a165627a7a723058208ea28e9db44851485248bef250cee5ea3d12512b9c598a7788f866eac08f9e600029",
  "source": "pragma solidity ^0.4.23;\n\ncontract DappToken{\n    // Constructor\n    // Set the total number of tokens\n    // Read the total number of tokens\n\n    uint256 public totalSupply;\n    mapping(address => uint256) public balanceOf;\n\n    constructor(uint256 _initialSupply) public{\n        totalSupply = _initialSupply;\n    }\n\n\n}",
  "sourcePath": "/Users/julia/Sites/token_sale/contracts/DappToken.sol",
  "compiler": {
    "name": "solc",
    "version": "0.4.24+commit.e67f0147.Emscripten.clang"
  },
  "schemaVersion": "2.0.1",
  "updatedAt": "2018-08-03T06:23:42.125Z"
}