{
  "contractName": "DappTokenSale",
  "abi": [
    {
      "constant": true,
      "inputs": [],
      "name": "tokenSold",
      "outputs": [
        {
          "name": "",
          "type": "uint256"
        }
      ],
      "payable": false,
      "stateMutability": "view",
      "type": "function"
    },
    {
      "constant": true,
      "inputs": [],
      "name": "tokenContract",
      "outputs": [
        {
          "name": "",
          "type": "address"
        }
      ],
      "payable": false,
      "stateMutability": "view",
      "type": "function"
    },
    {
      "constant": true,
      "inputs": [],
      "name": "tokenPrice",
      "outputs": [
        {
          "name": "",
          "type": "uint256"
        }
      ],
      "payable": false,
      "stateMutability": "view",
      "type": "function"
    },
    {
      "inputs": [
        {
          "name": "_tokenContract",
          "type": "address"
        },
        {
          "name": "_tokenPrice",
          "type": "uint256"
        }
      ],
      "payable": false,
      "stateMutability": "nonpayable",
      "type": "constructor"
    },
    {
      "anonymous": false,
      "inputs": [
        {
          "indexed": false,
          "name": "_byer",
          "type": "address"
        },
        {
          "indexed": false,
          "name": "_amount",
          "type": "uint256"
        }
      ],
      "name": "Sell",
      "type": "event"
    },
    {
      "constant": false,
      "inputs": [
        {
          "name": "_numberOfTokens",
          "type": "uint256"
        }
      ],
      "name": "buyTokens",
      "outputs": [],
      "payable": true,
      "stateMutability": "payable",
      "type": "function"
    }
  ],
  "bytecode": "0x608060405234801561001057600080fd5b506040516040806102e68339810180604052810190808051906020019092919080519060200190929190505050336000806101000a81548173ffffffffffffffffffffffffffffffffffffffff021916908373ffffffffffffffffffffffffffffffffffffffff16021790555081600160006101000a81548173ffffffffffffffffffffffffffffffffffffffff021916908373ffffffffffffffffffffffffffffffffffffffff160217905550806002819055505050610210806100d66000396000f300608060405260043610610062576000357c0100000000000000000000000000000000000000000000000000000000900463ffffffff1680633610724e14610067578063519ee19e1461008757806355a373d6146100b25780637ff9b59614610109575b600080fd5b61008560048036038101908080359060200190929190505050610134565b005b34801561009357600080fd5b5061009c6101b2565b6040518082815260200191505060405180910390f35b3480156100be57600080fd5b506100c76101b8565b604051808273ffffffffffffffffffffffffffffffffffffffff1673ffffffffffffffffffffffffffffffffffffffff16815260200191505060405180910390f35b34801561011557600080fd5b5061011e6101de565b6040518082815260200191505060405180910390f35b806003600082825401925050819055507f5e5e995ce3133561afceaa51a9a154d5db228cd7525d34df5185582c18d3df093382604051808373ffffffffffffffffffffffffffffffffffffffff1673ffffffffffffffffffffffffffffffffffffffff1681526020018281526020019250505060405180910390a150565b60035481565b600160009054906101000a900473ffffffffffffffffffffffffffffffffffffffff1681565b600254815600a165627a7a7230582097e86e41a13479c77ab3e50133ec7746b680562abb2c66fa437abb62d6d260a90029",
  "source": "pragma solidity ^0.4.23;\nimport \"./DappToken.sol\";\n\ncontract DappTokenSale{\n\n    address admin;\n    DappToken public tokenContract; //contract type variable\n    uint256 public tokenPrice;\n    uint256 public tokenSold;\n\n    event Sell(\n        address _byer,\n        uint256 _amount\n    );\n\n    constructor(DappToken _tokenContract, uint256 _tokenPrice) public{ //we can add a reference to DappToken contract inside of constructor\n\n        //assign an admin\n        admin = msg.sender;\n\n        //assign the Token contract\n        tokenContract = _tokenContract;\n\n        //token Price\n        tokenPrice = _tokenPrice;\n    }\n\n    //BUY TOKENS\n    function buyTokens(uint256 _numberOfTokens) public payable{\n\n        //Require that value is equal to tokens\n        //Require that the contract has enough tokens\n        //Require thst a transfer is successfull\n\n        //keep track of tokenSold\n        tokenSold += _numberOfTokens;\n\n\n        //emit the Sell Event\n        emit Sell(msg.sender, _numberOfTokens);\n\n\n    }\n}",
  "sourcePath": "/Users/julia/Sites/token_sale/contracts/DappTokenSale.sol",
  "compiler": {
    "name": "solc",
    "version": "0.4.24+commit.e67f0147.Emscripten.clang"
  },
  "schemaVersion": "2.0.1",
  "updatedAt": "2018-08-07T17:01:53.919Z"
}